{
  "address": "0x020171085bcd43b6fd36ad8c95ad61848b1211a2",
  "abi": [
    {
      "anonymous": false,
      "inputs": [
        {
          "indexed": true,
          "internalType": "address",
          "name": "owner",
          "type": "address"
        },
        {
          "indexed": true,
          "internalType": "address",
          "name": "approved",
          "type": "address"
        },
        {
          "indexed": true,
          "internalType": "uint256",
          "name": "tokenId",
          "type": "uint256"
        }
      ],
      "name": "Approval",
      "type": "event"
    },
    {
      "anonymous": false,
      "inputs": [
        {
          "indexed": true,
          "internalType": "address",
          "name": "owner",
          "type": "address"
        },
        {
          "indexed": true,
          "internalType": "address",
          "name": "operator",
          "type": "address"
        },
        {
          "indexed": false,
          "internalType": "bool",
          "name": "approved",
          "type": "bool"
        }
      ],
      "name": "ApprovalForAll",
      "type": "event"
    },
    {
      "anonymous": false,
      "inputs": [
        {
          "indexed": true,
          "internalType": "address",
          "name": "collector",
          "type": "address"
        },
        {
          "indexed": true,
          "internalType": "uint256",
          "name": "tokenId",
          "type": "uint256"
        },
        {
          "indexed": false,
          "internalType": "address",
          "name": "token",
          "type": "address"
        },
        {
          "indexed": false,
          "internalType": "uint256",
          "name": "amount",
          "type": "uint256"
        }
      ],
      "name": "Collected",
      "type": "event"
    },
    {
      "anonymous": false,
      "inputs": [
        {
          "indexed": true,
          "internalType": "address",
          "name": "from",
          "type": "address"
        },
        {
          "indexed": true,
          "internalType": "address",
          "name": "to",
          "type": "address"
        },
        {
          "indexed": true,
          "internalType": "uint256",
          "name": "tokenId",
          "type": "uint256"
        },
        {
          "indexed": false,
          "internalType": "uint256",
          "name": "unlocksAt",
          "type": "uint256"
        }
      ],
      "name": "GiftMinted",
      "type": "event"
    },
    {
      "anonymous": false,
      "inputs": [
        {
          "indexed": true,
          "internalType": "address",
          "name": "tipper",
          "type": "address"
        },
        {
          "indexed": true,
          "internalType": "uint256",
          "name": "tokenId",
          "type": "uint256"
        },
        {
          "indexed": false,
          "internalType": "address",
          "name": "token",
          "type": "address"
        },
        {
          "indexed": false,
          "internalType": "uint256",
          "name": "amount",
          "type": "uint256"
        },
        {
          "indexed": false,
          "internalType": "string",
          "name": "message",
          "type": "string"
        }
      ],
      "name": "Tip",
      "type": "event"
    },
    {
      "anonymous": false,
      "inputs": [
        {
          "indexed": true,
          "internalType": "address",
          "name": "from",
          "type": "address"
        },
        {
          "indexed": true,
          "internalType": "address",
          "name": "to",
          "type": "address"
        },
        {
          "indexed": true,
          "internalType": "uint256",
          "name": "tokenId",
          "type": "uint256"
        }
      ],
      "name": "Transfer",
      "type": "event"
    },
    {
      "inputs": [
        {
          "internalType": "address",
          "name": "to",
          "type": "address"
        },
        {
          "internalType": "uint256",
          "name": "tokenId",
          "type": "uint256"
        }
      ],
      "name": "approve",
      "outputs": [],
      "stateMutability": "nonpayable",
      "type": "function"
    },
    {
      "inputs": [
        {
          "internalType": "uint256",
          "name": "_amount",
          "type": "uint256"
        },
        {
          "internalType": "uint256",
          "name": "_start",
          "type": "uint256"
        },
        {
          "internalType": "uint256",
          "name": "_duration",
          "type": "uint256"
        }
      ],
      "name": "available",
      "outputs": [
        {
          "internalType": "uint256",
          "name": "",
          "type": "uint256"
        }
      ],
      "stateMutability": "view",
      "type": "function"
    },
    {
      "inputs": [
        {
          "internalType": "address",
          "name": "owner",
          "type": "address"
        }
      ],
      "name": "balanceOf",
      "outputs": [
        {
          "internalType": "uint256",
          "name": "",
          "type": "uint256"
        }
      ],
      "stateMutability": "view",
      "type": "function"
    },
    {
      "inputs": [],
      "name": "baseURI",
      "outputs": [
        {
          "internalType": "string",
          "name": "",
          "type": "string"
        }
      ],
      "stateMutability": "view",
      "type": "function"
    },
    {
      "inputs": [
        {
          "internalType": "uint256",
          "name": "_tokenId",
          "type": "uint256"
        },
        {
          "internalType": "uint256",
          "name": "_amount",
          "type": "uint256"
        }
      ],
      "name": "collect",
      "outputs": [],
      "stateMutability": "nonpayable",
      "type": "function"
    },
    {
      "inputs": [
        {
          "internalType": "uint256",
          "name": "_tokenId",
          "type": "uint256"
        }
      ],
      "name": "collectible",
      "outputs": [
        {
          "internalType": "uint256",
          "name": "",
          "type": "uint256"
        }
      ],
      "stateMutability": "view",
      "type": "function"
    },
    {
      "inputs": [
        {
          "internalType": "uint256",
          "name": "tokenId",
          "type": "uint256"
        }
      ],
      "name": "getApproved",
      "outputs": [
        {
          "internalType": "address",
          "name": "",
          "type": "address"
        }
      ],
      "stateMutability": "view",
      "type": "function"
    },
    {
      "inputs": [
        {
          "internalType": "uint256",
          "name": "",
          "type": "uint256"
        }
      ],
      "name": "gifts",
      "outputs": [
        {
          "internalType": "address",
          "name": "token",
          "type": "address"
        },
        {
          "internalType": "uint256",
          "name": "amount",
          "type": "uint256"
        },
        {
          "internalType": "uint256",
          "name": "tipped",
          "type": "uint256"
        },
        {
          "internalType": "uint256",
          "name": "start",
          "type": "uint256"
        },
        {
          "internalType": "uint256",
          "name": "duration",
          "type": "uint256"
        },
        {
          "internalType": "string",
          "name": "name",
          "type": "string"
        },
        {
          "internalType": "string",
          "name": "message",
          "type": "string"
        },
        {
          "internalType": "string",
          "name": "url",
          "type": "string"
        }
      ],
      "stateMutability": "view",
      "type": "function"
    },
    {
      "inputs": [
        {
          "internalType": "address",
          "name": "owner",
          "type": "address"
        },
        {
          "internalType": "address",
          "name": "operator",
          "type": "address"
        }
      ],
      "name": "isApprovedForAll",
      "outputs": [
        {
          "internalType": "bool",
          "name": "",
          "type": "bool"
        }
      ],
      "stateMutability": "view",
      "type": "function"
    },
    {
      "inputs": [
        {
          "internalType": "address",
          "name": "_to",
          "type": "address"
        },
        {
          "internalType": "address",
          "name": "_token",
          "type": "address"
        },
        {
          "internalType": "uint256",
          "name": "_amount",
          "type": "uint256"
        },
        {
          "internalType": "string",
          "name": "_name",
          "type": "string"
        },
        {
          "internalType": "string",
          "name": "_msg",
          "type": "string"
        },
        {
          "internalType": "string",
          "name": "_url",
          "type": "string"
        },
        {
          "internalType": "uint256",
          "name": "_start",
          "type": "uint256"
        },
        {
          "internalType": "uint256",
          "name": "_duration",
          "type": "uint256"
        }
      ],
      "name": "mint",
      "outputs": [],
      "stateMutability": "nonpayable",
      "type": "function"
    },
    {
      "inputs": [],
      "name": "name",
      "outputs": [
        {
          "internalType": "string",
          "name": "",
          "type": "string"
        }
      ],
      "stateMutability": "view",
      "type": "function"
    },
    {
      "inputs": [
        {
          "internalType": "address",
          "name": "_operator",
          "type": "address"
        },
        {
          "internalType": "address",
          "name": "_from",
          "type": "address"
        },
        {
          "internalType": "uint256",
          "name": "_tokenId",
          "type": "uint256"
        },
        {
          "internalType": "bytes",
          "name": "_data",
          "type": "bytes"
        }
      ],
      "name": "onERC721Received",
      "outputs": [
        {
          "internalType": "bytes4",
          "name": "",
          "type": "bytes4"
        }
      ],
      "stateMutability": "view",
      "type": "function"
    },
    {
      "inputs": [
        {
          "internalType": "uint256",
          "name": "tokenId",
          "type": "uint256"
        }
      ],
      "name": "ownerOf",
      "outputs": [
        {
          "internalType": "address",
          "name": "",
          "type": "address"
        }
      ],
      "stateMutability": "view",
      "type": "function"
    },
    {
      "inputs": [
        {
          "internalType": "address",
          "name": "from",
          "type": "address"
        },
        {
          "internalType": "address",
          "name": "to",
          "type": "address"
        },
        {
          "internalType": "uint256",
          "name": "tokenId",
          "type": "uint256"
        }
      ],
      "name": "safeTransferFrom",
      "outputs": [],
      "stateMutability": "nonpayable",
      "type": "function"
    },
    {
      "inputs": [
        {
          "internalType": "address",
          "name": "from",
          "type": "address"
        },
        {
          "internalType": "address",
          "name": "to",
          "type": "address"
        },
        {
          "internalType": "uint256",
          "name": "tokenId",
          "type": "uint256"
        },
        {
          "internalType": "bytes",
          "name": "_data",
          "type": "bytes"
        }
      ],
      "name": "safeTransferFrom",
      "outputs": [],
      "stateMutability": "nonpayable",
      "type": "function"
    },
    {
      "inputs": [
        {
          "internalType": "address",
          "name": "operator",
          "type": "address"
        },
        {
          "internalType": "bool",
          "name": "approved",
          "type": "bool"
        }
      ],
      "name": "setApprovalForAll",
      "outputs": [],
      "stateMutability": "nonpayable",
      "type": "function"
    },
    {
      "inputs": [
        {
          "internalType": "bytes4",
          "name": "interfaceId",
          "type": "bytes4"
        }
      ],
      "name": "supportsInterface",
      "outputs": [
        {
          "internalType": "bool",
          "name": "",
          "type": "bool"
        }
      ],
      "stateMutability": "view",
      "type": "function"
    },
    {
      "inputs": [],
      "name": "symbol",
      "outputs": [
        {
          "internalType": "string",
          "name": "",
          "type": "string"
        }
      ],
      "stateMutability": "view",
      "type": "function"
    },
    {
      "inputs": [
        {
          "internalType": "uint256",
          "name": "_tokenId",
          "type": "uint256"
        },
        {
          "internalType": "uint256",
          "name": "_amount",
          "type": "uint256"
        },
        {
          "internalType": "string",
          "name": "_msg",
          "type": "string"
        }
      ],
      "name": "tip",
      "outputs": [],
      "stateMutability": "nonpayable",
      "type": "function"
    },
    {
      "inputs": [
        {
          "internalType": "uint256",
          "name": "index",
          "type": "uint256"
        }
      ],
      "name": "tokenByIndex",
      "outputs": [
        {
          "internalType": "uint256",
          "name": "",
          "type": "uint256"
        }
      ],
      "stateMutability": "view",
      "type": "function"
    },
    {
      "inputs": [
        {
          "internalType": "address",
          "name": "owner",
          "type": "address"
        },
        {
          "internalType": "uint256",
          "name": "index",
          "type": "uint256"
        }
      ],
      "name": "tokenOfOwnerByIndex",
      "outputs": [
        {
          "internalType": "uint256",
          "name": "",
          "type": "uint256"
        }
      ],
      "stateMutability": "view",
      "type": "function"
    },
    {
      "inputs": [
        {
          "internalType": "uint256",
          "name": "tokenId",
          "type": "uint256"
        }
      ],
      "name": "tokenURI",
      "outputs": [
        {
          "internalType": "string",
          "name": "",
          "type": "string"
        }
      ],
      "stateMutability": "view",
      "type": "function"
    },
    {
      "inputs": [],
      "name": "totalSupply",
      "outputs": [
        {
          "internalType": "uint256",
          "name": "",
          "type": "uint256"
        }
      ],
      "stateMutability": "view",
      "type": "function"
    },
    {
      "inputs": [
        {
          "internalType": "address",
          "name": "from",
          "type": "address"
        },
        {
          "internalType": "address",
          "name": "to",
          "type": "address"
        },
        {
          "internalType": "uint256",
          "name": "tokenId",
          "type": "uint256"
        }
      ],
      "name": "transferFrom",
      "outputs": [],
      "stateMutability": "nonpayable",
      "type": "function"
    }
  ],
  "transactionHash": "0xb04211e035711ef9878bf916e451a05111da024dd4922676aa6db8a6838ac82d",
  "args": [],
  "solcInputHash": "9490702670045c01617ce850849205db",
  "bytecode": "0x60806040523480156200001157600080fd5b50604080518082018252600e81526d1e59585c9b8811da599d0813919560921b602080830191909152825180840190935260058352641e51d2519560da1b9083015290620000666301ffc9a760e01b620000d0565b81516200007b90600690602085019062000155565b5080516200009190600790602084019062000155565b50620000a46380ac58cd60e01b620000d0565b620000b6635b5e139f60e01b620000d0565b620000c863780e9d6360e01b620000d0565b5050620001f1565b6001600160e01b0319808216141562000130576040805162461bcd60e51b815260206004820152601c60248201527f4552433136353a20696e76616c696420696e7465726661636520696400000000604482015290519081900360640190fd5b6001600160e01b0319166000908152602081905260409020805460ff19166001179055565b828054600181600116156101000203166002900490600052602060002090601f016020900481019282601f106200019857805160ff1916838001178555620001c8565b82800160010185558215620001c8579182015b82811115620001c8578251825591602001919060010190620001ab565b50620001d6929150620001da565b5090565b5b80821115620001d65760008155600101620001db565b612bb180620002016000396000f3fe608060405234801561001057600080fd5b50600436106101385760003560e01c80636352211e116100b35780636352211e146105285780636c0360eb1461054557806370a082311461054d5780637be3d02f1461057357806395d89b411461059c578063998692ed146105a4578063a22cb4651461061e578063b88d4fde1461064c578063c87b56dd14610710578063cfa6f8271461072d578063d606593514610750578063e985e9c5146108dd57610138565b806301ffc9a71461013d57806306fdde0314610178578063081812fc146101f5578063095ea7b31461022e578063150b7a021461025c57806318160ddd1461030757806323b872dd146103215780632f745c591461035757806342842e0e146103835780634853d8a5146103b95780634f6ccce7146104ee57806353dc21591461050b575b600080fd5b6101646004803603602081101561015357600080fd5b50356001600160e01b03191661090b565b604080519115158252519081900360200190f35b61018061092e565b6040805160208082528351818301528351919283929083019185019080838360005b838110156101ba5781810151838201526020016101a2565b50505050905090810190601f1680156101e75780820380516001836020036101000a031916815260200191505b509250505060405180910390f35b6102126004803603602081101561020b57600080fd5b50356109c4565b604080516001600160a01b039092168252519081900360200190f35b61025a6004803603604081101561024457600080fd5b506001600160a01b038135169060200135610a26565b005b6102ea6004803603608081101561027257600080fd5b6001600160a01b03823581169260208101359091169160408201359190810190608081016060820135600160201b8111156102ac57600080fd5b8201836020820111156102be57600080fd5b803590602001918460018302840111600160201b831117156102df57600080fd5b509092509050610b01565b604080516001600160e01b03199092168252519081900360200190f35b61030f610b69565b60408051918252519081900360200190f35b61025a6004803603606081101561033757600080fd5b506001600160a01b03813581169160208101359091169060400135610b7a565b61030f6004803603604081101561036d57600080fd5b506001600160a01b038135169060200135610bd1565b61025a6004803603606081101561039957600080fd5b506001600160a01b03813581169160208101359091169060400135610bfc565b61025a60048036036101008110156103d057600080fd5b6001600160a01b03823581169260208101359091169160408201359190810190608081016060820135600160201b81111561040a57600080fd5b82018360208201111561041c57600080fd5b803590602001918460018302840111600160201b8311171561043d57600080fd5b919390929091602081019035600160201b81111561045a57600080fd5b82018360208201111561046c57600080fd5b803590602001918460018302840111600160201b8311171561048d57600080fd5b919390929091602081019035600160201b8111156104aa57600080fd5b8201836020820111156104bc57600080fd5b803590602001918460018302840111600160201b831117156104dd57600080fd5b919350915080359060200135610c17565b61030f6004803603602081101561050457600080fd5b5035610eb2565b61030f6004803603602081101561052157600080fd5b5035610ec8565b6102126004803603602081101561053e57600080fd5b5035610f14565b610180610f3c565b61030f6004803603602081101561056357600080fd5b50356001600160a01b0316610f9d565b61030f6004803603606081101561058957600080fd5b5080359060208101359060400135611005565b610180611042565b61025a600480360360608110156105ba57600080fd5b813591602081013591810190606081016040820135600160201b8111156105e057600080fd5b8201836020820111156105f257600080fd5b803590602001918460018302840111600160201b8311171561061357600080fd5b5090925090506110a3565b61025a6004803603604081101561063457600080fd5b506001600160a01b03813516906020013515156111d5565b61025a6004803603608081101561066257600080fd5b6001600160a01b03823581169260208101359091169160408201359190810190608081016060820135600160201b81111561069c57600080fd5b8201836020820111156106ae57600080fd5b803590602001918460018302840111600160201b831117156106cf57600080fd5b91908080601f0160208091040260200160405190810160405280939291908181526020018383808284376000920191909152509295506112d6945050505050565b6101806004803603602081101561072657600080fd5b5035611334565b61025a6004803603604081101561074357600080fd5b50803590602001356115db565b61076d6004803603602081101561076657600080fd5b50356117fb565b60405180896001600160a01b03168152602001888152602001878152602001868152602001858152602001806020018060200180602001848103845287818151815260200191508051906020019080838360005b838110156107d95781810151838201526020016107c1565b50505050905090810190601f1680156108065780820380516001836020036101000a031916815260200191505b50848103835286518152865160209182019188019080838360005b83811015610839578181015183820152602001610821565b50505050905090810190601f1680156108665780820380516001836020036101000a031916815260200191505b50848103825285518152855160209182019187019080838360005b83811015610899578181015183820152602001610881565b50505050905090810190601f1680156108c65780820380516001836020036101000a031916815260200191505b509b50505050505050505050505060405180910390f35b610164600480360360408110156108f357600080fd5b506001600160a01b03813581169160200135166119f8565b6001600160e01b0319811660009081526020819052604090205460ff165b919050565b60068054604080516020601f60026000196101006001881615020190951694909404938401819004810282018101909252828152606093909290918301828280156109ba5780601f1061098f576101008083540402835291602001916109ba565b820191906000526020600020905b81548152906001019060200180831161099d57829003601f168201915b5050505050905090565b60006109cf82611a26565b610a0a5760405162461bcd60e51b815260040180806020018281038252602c815260200180612a7c602c913960400191505060405180910390fd5b506000908152600460205260409020546001600160a01b031690565b6000610a3182610f14565b9050806001600160a01b0316836001600160a01b03161415610a845760405162461bcd60e51b8152600401808060200182810382526021815260200180612b006021913960400191505060405180910390fd5b806001600160a01b0316610a96611a33565b6001600160a01b03161480610ab75750610ab781610ab2611a33565b6119f8565b610af25760405162461bcd60e51b81526004018080602001828103825260388152602001806129cf6038913960400191505060405180910390fd5b610afc8383611a37565b505050565b6000333014610b57576040805162461bcd60e51b815260206004820181905260248201527f79476966743a2043616e6e6f742072656365697665206f74686572204e465473604482015290519081900360640190fd5b50630a85bd0160e11b95945050505050565b6000610b756002611aa5565b905090565b610b8b610b85611a33565b82611ab0565b610bc65760405162461bcd60e51b8152600401808060200182810382526031815260200180612b216031913960400191505060405180910390fd5b610afc838383611b54565b6001600160a01b0382166000908152600160205260408120610bf39083611ca0565b90505b92915050565b610afc838383604051806020016040528060008152506112d6565b6000600a805490509050600a6040518061010001604052808d6001600160a01b031681526020018c8152602001600081526020018581526020018481526020018b8b8080601f016020809104026020016040519081016040528093929190818152602001838380828437600092019190915250505090825250604080516020601f8c018190048102820181019092528a815291810191908b908b9081908401838280828437600092019190915250505090825250604080516020601f8a01819004810282018101909252888152918101919089908990819084018382808284376000920182905250939094525050835460018082018655948252602091829020845160089092020180546001600160a01b0319166001600160a01b03909216919091178155838201519481019490945560408301516002850155606083015160038501556080830151600485015560a08301518051939493610d83935060058501929190910190612897565b5060c08201518051610d9f916006840191602090910190612897565b5060e08201518051610dbb916007840191602090910190612897565b505050610dc88c82611cac565b610ddd6001600160a01b038c1633308d611cca565b60408051848152905182916001600160a01b038f169133917fad44b48ec853921e6665d22a88bc31c245479a93dea33a944cc894a12e9785e3919081900360200190a480336001600160a01b03167f90edbc0c13503a3277670fa6e0c3a6fc20e90c74abd190d5ec265a8d9aea2d3a8d8d8b8b60405180856001600160a01b03168152602001848152602001806020018281038252848482818152602001925080828437600083820152604051601f909101601f191690920182900397509095505050505050a3505050505050505050505050565b600080610ec0600284611d24565b509392505050565b600080600a8381548110610ed857fe5b90600052602060002090600802019050610f0d8160020154610f07836001015484600301548560040154611005565b90611d40565b9392505050565b6000610bf682604051806060016040528060298152602001612a316029913960029190611d98565b60098054604080516020601f60026000196101006001881615020190951694909404938401819004810282018101909252828152606093909290918301828280156109ba5780601f1061098f576101008083540402835291602001916109ba565b60006001600160a01b038216610fe45760405162461bcd60e51b815260040180806020018281038252602a815260200180612a07602a913960400191505060405180910390fd5b6001600160a01b0382166000908152600160205260409020610bf690611aa5565b60004283111561101757506000610f0d565b81611023575082610f0d565b8161103084420384611da5565b85028161103957fe5b04949350505050565b60078054604080516020601f60026000196101006001881615020190951694909404938401819004810282018101909252828152606093909290918301828280156109ba5780601f1061098f576101008083540402835291602001916109ba565b600a5484106110f9576040805162461bcd60e51b815260206004820152601f60248201527f79476966743a20546f6b656e20494420646f6573206e6f742065786973742e00604482015290519081900360640190fd5b6000600a858154811061110857fe5b9060005260206000209060080201905061112f848260020154611d4090919063ffffffff16565b6002820155805461114b906001600160a01b0316333087611cca565b8054604080516001600160a01b03909216808352602083018790526060918301828152918301859052879233927f90edbc0c13503a3277670fa6e0c3a6fc20e90c74abd190d5ec265a8d9aea2d3a929189918991899160808201848480828437600083820152604051601f909101601f191690920182900397509095505050505050a35050505050565b6111dd611a33565b6001600160a01b0316826001600160a01b0316141561123f576040805162461bcd60e51b815260206004820152601960248201527822a9219b99189d1030b8383937bb32903a379031b0b63632b960391b604482015290519081900360640190fd5b806005600061124c611a33565b6001600160a01b03908116825260208083019390935260409182016000908120918716808252919093529120805460ff191692151592909217909155611290611a33565b6001600160a01b03167f17307eab39ab6107e8899845ad3d59bd9653f200f220920489ca2b5937696c318360405180821515815260200191505060405180910390a35050565b6112e76112e1611a33565b83611ab0565b6113225760405162461bcd60e51b8152600401808060200182810382526031815260200180612b216031913960400191505060405180910390fd5b61132e84848484611dbb565b50505050565b606061133f82611a26565b61137a5760405162461bcd60e51b815260040180806020018281038252602f815260200180612ad1602f913960400191505060405180910390fd5b60008281526008602090815260409182902080548351601f600260001961010060018616150201909316929092049182018490048402810184019094528084526060939283018282801561140f5780601f106113e45761010080835404028352916020019161140f565b820191906000526020600020905b8154815290600101906020018083116113f257829003601f168201915b505060095493945050505060026000196101006001841615020190911604611438579050610929565b8051156115095760098160405160200180838054600181600116156101000203166002900480156114a05780601f1061147e5761010080835404028352918201916114a0565b820191906000526020600020905b81548152906001019060200180831161148c575b5050825160208401908083835b602083106114cc5780518252601f1990920191602091820191016114ad565b6001836020036101000a03801982511681845116808217855250505050505090500192505050604051602081830303815290604052915050610929565b600961151484611e0d565b60405160200180838054600181600116156101000203166002900480156115725780601f10611550576101008083540402835291820191611572565b820191906000526020600020905b81548152906001019060200180831161155e575b5050825160208401908083835b6020831061159e5780518252601f19909201916020918201910161157f565b6001836020036101000a03801982511681845116808217855250505050505090500192505050604051602081830303815290604052915050919050565b6115e53383611ab0565b611636576040805162461bcd60e51b815260206004820181905260248201527f79476966743a20596f7520617265206e6f7420746865204e4654206f776e6572604482015290519081900360640190fd5b6000600a838154811061164557fe5b90600052602060002090600802019050428160030154106116ad576040805162461bcd60e51b815260206004820152601c60248201527f79476966743a2052657761726473207374696c6c2076657374696e6700000000604482015290519081900360640190fd5b60006116c6826001015483600301548460040154611005565b905060006116e1836002015483611d4090919063ffffffff16565b9050808411156116ef578093505b60008411611741576040805162461bcd60e51b815260206004820152601a6024820152791e51da599d0e881a5b9cdd59999a58da595b9d08185b5bdd5b9d60321b604482015290519081900360640190fd5b6000611751858560020154611da5565b9050801561176e5760028401546117689082611ee8565b60028501555b61178f85611789838760010154611d4090919063ffffffff16565b90611ee8565b600185015583546117aa906001600160a01b03163387611f2a565b8354604080516001600160a01b039092168252602082018790528051889233927fffd3265da6a8b23b9bbf0b3c13b5060e8bab5fdbefd40e4ebe34edd75ae7507992918290030190a3505050505050565b600a818154811061180857fe5b600091825260209182902060089091020180546001808301546002808501546003860154600487015460058801805460408051601f6000199a841615610100029a909a01909216969096049788018b90048b0281018b019095528685526001600160a01b03909716995093979196909593949093918301828280156118ce5780601f106118a3576101008083540402835291602001916118ce565b820191906000526020600020905b8154815290600101906020018083116118b157829003601f168201915b5050505060068301805460408051602060026001851615610100026000190190941693909304601f810184900484028201840190925281815294959493509083018282801561195e5780601f106119335761010080835404028352916020019161195e565b820191906000526020600020905b81548152906001019060200180831161194157829003601f168201915b5050505060078301805460408051602060026001851615610100026000190190941693909304601f81018490048402820184019092528181529495949350908301828280156119ee5780601f106119c3576101008083540402835291602001916119ee565b820191906000526020600020905b8154815290600101906020018083116119d157829003601f168201915b5050505050905088565b6001600160a01b03918216600090815260056020908152604080832093909416825291909152205460ff1690565b6000610bf6600283611f7c565b3390565b600081815260046020526040902080546001600160a01b0319166001600160a01b0384169081179091558190611a6c82610f14565b6001600160a01b03167f8c5be1e5ebec7d5bd14f71427d1e84f3dd0314c0f7b2291e5b200ac8c7c3b92560405160405180910390a45050565b6000610bf682611f88565b6000611abb82611a26565b611af65760405162461bcd60e51b815260040180806020018281038252602c8152602001806129a3602c913960400191505060405180910390fd5b6000611b0183610f14565b9050806001600160a01b0316846001600160a01b03161480611b3c5750836001600160a01b0316611b31846109c4565b6001600160a01b0316145b80611b4c5750611b4c81856119f8565b949350505050565b826001600160a01b0316611b6782610f14565b6001600160a01b031614611bac5760405162461bcd60e51b8152600401808060200182810382526029815260200180612aa86029913960400191505060405180910390fd5b6001600160a01b038216611bf15760405162461bcd60e51b815260040180806020018281038252602481526020018061297f6024913960400191505060405180910390fd5b611bfc838383610afc565b611c07600082611a37565b6001600160a01b0383166000908152600160205260409020611c299082611f8c565b506001600160a01b0382166000908152600160205260409020611c4c9082611f98565b50611c5960028284611fa4565b5080826001600160a01b0316846001600160a01b03167fddf252ad1be2c89b69c2b068fc378daa952ba7f163c4a11628f55a4df523b3ef60405160405180910390a4505050565b6000610bf38383611fba565b611cc682826040518060200160405280600081525061201e565b5050565b604080516001600160a01b0380861660248301528416604482015260648082018490528251808303909101815260849091019091526020810180516001600160e01b03166323b872dd60e01b17905261132e908590612070565b6000808080611d338686612121565b9097909650945050505050565b600082820183811015610bf3576040805162461bcd60e51b815260206004820152601b60248201527a536166654d6174683a206164646974696f6e206f766572666c6f7760281b604482015290519081900360640190fd5b6000611b4c84848461219c565b6000818310611db45781610bf3565b5090919050565b611dc6848484611b54565b611dd284848484612266565b61132e5760405162461bcd60e51b815260040180806020018281038252603281526020018061294d6032913960400191505060405180910390fd5b606081611e3257506040805180820190915260018152600360fc1b6020820152610929565b8160005b8115611e4a57600101600a82049150611e36565b60608167ffffffffffffffff81118015611e6357600080fd5b506040519080825280601f01601f191660200182016040528015611e8e576020820181803683370190505b50859350905060001982015b8315611edf57600a840660300160f81b82828060019003935081518110611ebd57fe5b60200101906001600160f81b031916908160001a905350600a84049350611e9a565b50949350505050565b6000610bf383836040518060400160405280601e81526020017f536166654d6174683a207375627472616374696f6e206f766572666c6f7700008152506123ce565b604080516001600160a01b038416602482015260448082018490528251808303909101815260649091019091526020810180516001600160e01b031663a9059cbb60e01b179052610afc908490612070565b6000610bf38383612428565b5490565b6000610bf38383612440565b6000610bf38383612506565b6000611b4c84846001600160a01b038516612550565b81546000908210611ffc5760405162461bcd60e51b815260040180806020018281038252602281526020018061292b6022913960400191505060405180910390fd5b82600001828154811061200b57fe5b9060005260206000200154905092915050565b61202883836125e7565b6120356000848484612266565b610afc5760405162461bcd60e51b815260040180806020018281038252603281526020018061294d6032913960400191505060405180910390fd5b60606120c5826040518060400160405280602081526020017f5361666545524332303a206c6f772d6c6576656c2063616c6c206661696c6564815250856001600160a01b03166127159092919063ffffffff16565b805190915015610afc578080602001905160208110156120e457600080fd5b5051610afc5760405162461bcd60e51b815260040180806020018281038252602a815260200180612b52602a913960400191505060405180910390fd5b8154600090819083106121655760405162461bcd60e51b8152600401808060200182810382526022815260200180612a5a6022913960400191505060405180910390fd5b600084600001848154811061217657fe5b906000526020600020906002020190508060000154816001015492509250509250929050565b600082815260018401602052604081205482816122375760405162461bcd60e51b81526004018080602001828103825283818151815260200191508051906020019080838360005b838110156121fc5781810151838201526020016121e4565b50505050905090810190601f1680156122295780820380516001836020036101000a031916815260200191505b509250505060405180910390fd5b5084600001600182038154811061224a57fe5b9060005260206000209060020201600101549150509392505050565b600061227a846001600160a01b0316612724565b61228657506001611b4c565b6060612394630a85bd0160e11b61229b611a33565b88878760405160240180856001600160a01b03168152602001846001600160a01b0316815260200183815260200180602001828103825283818151815260200191508051906020019080838360005b838110156123025781810151838201526020016122ea565b50505050905090810190601f16801561232f5780820380516001836020036101000a031916815260200191505b5095505050505050604051602081830303815290604052906001600160e01b0319166020820180516001600160e01b03838183161783525050505060405180606001604052806032815260200161294d603291396001600160a01b0388169190612715565b905060008180602001905160208110156123ad57600080fd5b50516001600160e01b031916630a85bd0160e11b1492505050949350505050565b600081848411156124205760405162461bcd60e51b81526020600482018181528351602484015283519092839260449091019190850190808383600083156121fc5781810151838201526020016121e4565b505050900390565b60009081526001919091016020526040902054151590565b600081815260018301602052604081205480156124fc578354600019808301919081019060009087908390811061247357fe5b906000526020600020015490508087600001848154811061249057fe5b6000918252602080832090910192909255828152600189810190925260409020908401905586548790806124c057fe5b60019003818190600052602060002001600090559055866001016000878152602001908152602001600020600090556001945050505050610bf6565b6000915050610bf6565b60006125128383612428565b61254857508154600181810184556000848152602080822090930184905584548482528286019093526040902091909155610bf6565b506000610bf6565b6000828152600184016020526040812054806125b5575050604080518082018252838152602080820184815286546001818101895560008981528481209551600290930290950191825591519082015586548684528188019092529290912055610f0d565b828560000160018303815481106125c857fe5b9060005260206000209060020201600101819055506000915050610f0d565b6001600160a01b038216612642576040805162461bcd60e51b815260206004820181905260248201527f4552433732313a206d696e7420746f20746865207a65726f2061646472657373604482015290519081900360640190fd5b61264b81611a26565b1561269d576040805162461bcd60e51b815260206004820152601c60248201527f4552433732313a20746f6b656e20616c7265616479206d696e74656400000000604482015290519081900360640190fd5b6126a960008383610afc565b6001600160a01b03821660009081526001602052604090206126cb9082611f98565b506126d860028284611fa4565b5060405181906001600160a01b038416906000907fddf252ad1be2c89b69c2b068fc378daa952ba7f163c4a11628f55a4df523b3ef908290a45050565b6060611b4c848460008561272a565b3b151590565b606061273585612724565b612786576040805162461bcd60e51b815260206004820152601d60248201527f416464726573733a2063616c6c20746f206e6f6e2d636f6e7472616374000000604482015290519081900360640190fd5b60006060866001600160a01b031685876040518082805190602001908083835b602083106127c55780518252601f1990920191602091820191016127a6565b6001836020036101000a03801982511681845116808217855250505050505090500191505060006040518083038185875af1925050503d8060008114612827576040519150601f19603f3d011682016040523d82523d6000602084013e61282c565b606091505b50915091508115612840579150611b4c9050565b8051156128505780518082602001fd5b60405162461bcd60e51b81526020600482018181528651602484015286518793919283926044019190850190808383600083156121fc5781810151838201526020016121e4565b828054600181600116156101000203166002900490600052602060002090601f016020900481019282601f106128d857805160ff1916838001178555612905565b82800160010185558215612905579182015b828111156129055782518255916020019190600101906128ea565b50612911929150612915565b5090565b5b80821115612911576000815560010161291656fe456e756d657261626c655365743a20696e646578206f7574206f6620626f756e64734552433732313a207472616e7366657220746f206e6f6e20455243373231526563656976657220696d706c656d656e7465724552433732313a207472616e7366657220746f20746865207a65726f20616464726573734552433732313a206f70657261746f7220717565727920666f72206e6f6e6578697374656e7420746f6b656e4552433732313a20617070726f76652063616c6c6572206973206e6f74206f776e6572206e6f7220617070726f76656420666f7220616c6c4552433732313a2062616c616e636520717565727920666f7220746865207a65726f20616464726573734552433732313a206f776e657220717565727920666f72206e6f6e6578697374656e7420746f6b656e456e756d657261626c654d61703a20696e646578206f7574206f6620626f756e64734552433732313a20617070726f76656420717565727920666f72206e6f6e6578697374656e7420746f6b656e4552433732313a207472616e73666572206f6620746f6b656e2074686174206973206e6f74206f776e4552433732314d657461646174613a2055524920717565727920666f72206e6f6e6578697374656e7420746f6b656e4552433732313a20617070726f76616c20746f2063757272656e74206f776e65724552433732313a207472616e736665722063616c6c6572206973206e6f74206f776e6572206e6f7220617070726f7665645361666545524332303a204552433230206f7065726174696f6e20646964206e6f742073756363656564a2646970667358221220824a4df58ba586de41e2969ca260c64457d4a3236d183ec95b56a3e6373324e064736f6c634300060c0033",
  "devdoc": {
    "kind": "dev",
    "methods": {
      "approve(address,uint256)": {
        "details": "See {IERC721-approve}."
      },
      "available(uint256,uint256,uint256)": {
        "details": "Returns the available amount of tokens based on vesting parametres _amount: amount of tokens in the gift _start: Time at which the cliff ends _duration: vesting period"
      },
      "balanceOf(address)": {
        "details": "See {IERC721-balanceOf}."
      },
      "baseURI()": {
        "details": "Returns the base URI set via {_setBaseURI}. This will be automatically added as a prefix in {tokenURI} to each token's URI, or to the token ID if no specific URI is set for that token ID."
      },
      "collect(uint256,uint256)": {
        "details": "Allows the gift recipient to collect their tokens _tokenId: gift in which the function caller would like to tip _amount: amount of tokens the gift owner would like to collect requirement: caller must be the owner of the gift"
      },
      "collectible(uint256)": {
        "details": "Returns the maximum collectible amount of tokens for a given gift _tokenId: gift for which to calculate the collectibe amount"
      },
      "getApproved(uint256)": {
        "details": "See {IERC721-getApproved}."
      },
      "isApprovedForAll(address,address)": {
        "details": "See {IERC721-isApprovedForAll}."
      },
      "mint(address,address,uint256,string,string,string,uint256,uint256)": {
        "details": "Mints a new Gift NFT and places it into the contract address for future collection _to: recipient of the gift _token: token address of the token to be gifted _amount: amount of _token to be gifted _name: name of the gift _msg: Tip message given by the original minter _url: URL link for the image attached to the nft _start: the amount of time the gift will be locked until the recipient can collect it _duration: duration over which the amount linearly becomes available  * Emits a {Tip} event."
      },
      "name()": {
        "details": "See {IERC721Metadata-name}."
      },
      "ownerOf(uint256)": {
        "details": "See {IERC721-ownerOf}."
      },
      "safeTransferFrom(address,address,uint256)": {
        "details": "See {IERC721-safeTransferFrom}."
      },
      "safeTransferFrom(address,address,uint256,bytes)": {
        "details": "See {IERC721-safeTransferFrom}."
      },
      "setApprovalForAll(address,bool)": {
        "details": "See {IERC721-setApprovalForAll}."
      },
      "supportsInterface(bytes4)": {
        "details": "See {IERC165-supportsInterface}. Time complexity O(1), guaranteed to always use less than 30 000 gas."
      },
      "symbol()": {
        "details": "See {IERC721Metadata-symbol}."
      },
      "tip(uint256,uint256,string)": {
        "details": "Tip some tokens to Gift NFT _tokenId: gift in which the function caller would like to tip _amount: amount of _token to be gifted _msg: Tip message given by the original minter Emits a {Tip} event."
      },
      "tokenByIndex(uint256)": {
        "details": "See {IERC721Enumerable-tokenByIndex}."
      },
      "tokenOfOwnerByIndex(address,uint256)": {
        "details": "See {IERC721Enumerable-tokenOfOwnerByIndex}."
      },
      "tokenURI(uint256)": {
        "details": "See {IERC721Metadata-tokenURI}."
      },
      "totalSupply()": {
        "details": "See {IERC721Enumerable-totalSupply}."
      },
      "transferFrom(address,address,uint256)": {
        "details": "See {IERC721-transferFrom}."
      }
    },
    "version": 1
  },
  "userdoc": {
    "kind": "user",
    "methods": {},
    "version": 1
  },
  "storageLayout": {
    "storage": [
      {
        "astId": 36,
        "contract": "contracts/yGift/yGift.sol:yGift",
        "label": "_supportedInterfaces",
        "offset": 0,
        "slot": "0",
        "type": "t_mapping(t_bytes4,t_bool)"
      },
      {
        "astId": 624,
        "contract": "contracts/yGift/yGift.sol:yGift",
        "label": "_holderTokens",
        "offset": 0,
        "slot": "1",
        "type": "t_mapping(t_address,t_struct(UintSet)2651_storage)"
      },
      {
        "astId": 626,
        "contract": "contracts/yGift/yGift.sol:yGift",
        "label": "_tokenOwners",
        "offset": 0,
        "slot": "2",
        "type": "t_struct(UintToAddressMap)2176_storage"
      },
      {
        "astId": 630,
        "contract": "contracts/yGift/yGift.sol:yGift",
        "label": "_tokenApprovals",
        "offset": 0,
        "slot": "4",
        "type": "t_mapping(t_uint256,t_address)"
      },
      {
        "astId": 636,
        "contract": "contracts/yGift/yGift.sol:yGift",
        "label": "_operatorApprovals",
        "offset": 0,
        "slot": "5",
        "type": "t_mapping(t_address,t_mapping(t_address,t_bool))"
      },
      {
        "astId": 638,
        "contract": "contracts/yGift/yGift.sol:yGift",
        "label": "_name",
        "offset": 0,
        "slot": "6",
        "type": "t_string_storage"
      },
      {
        "astId": 640,
        "contract": "contracts/yGift/yGift.sol:yGift",
        "label": "_symbol",
        "offset": 0,
        "slot": "7",
        "type": "t_string_storage"
      },
      {
        "astId": 644,
        "contract": "contracts/yGift/yGift.sol:yGift",
        "label": "_tokenURIs",
        "offset": 0,
        "slot": "8",
        "type": "t_mapping(t_uint256,t_string_storage)"
      },
      {
        "astId": 646,
        "contract": "contracts/yGift/yGift.sol:yGift",
        "label": "_baseURI",
        "offset": 0,
        "slot": "9",
        "type": "t_string_storage"
      },
      {
        "astId": 2869,
        "contract": "contracts/yGift/yGift.sol:yGift",
        "label": "gifts",
        "offset": 0,
        "slot": "10",
        "type": "t_array(t_struct(Gift)2866_storage)dyn_storage"
      }
    ],
    "types": {
      "t_address": {
        "encoding": "inplace",
        "label": "address",
        "numberOfBytes": "20"
      },
      "t_array(t_bytes32)dyn_storage": {
        "base": "t_bytes32",
        "encoding": "dynamic_array",
        "label": "bytes32[]",
        "numberOfBytes": "32"
      },
      "t_array(t_struct(Gift)2866_storage)dyn_storage": {
        "base": "t_struct(Gift)2866_storage",
        "encoding": "dynamic_array",
        "label": "struct yGift.Gift[]",
        "numberOfBytes": "32"
      },
      "t_array(t_struct(MapEntry)1904_storage)dyn_storage": {
        "base": "t_struct(MapEntry)1904_storage",
        "encoding": "dynamic_array",
        "label": "struct EnumerableMap.MapEntry[]",
        "numberOfBytes": "32"
      },
      "t_bool": {
        "encoding": "inplace",
        "label": "bool",
        "numberOfBytes": "1"
      },
      "t_bytes32": {
        "encoding": "inplace",
        "label": "bytes32",
        "numberOfBytes": "32"
      },
      "t_bytes4": {
        "encoding": "inplace",
        "label": "bytes4",
        "numberOfBytes": "4"
      },
      "t_mapping(t_address,t_bool)": {
        "encoding": "mapping",
        "key": "t_address",
        "label": "mapping(address => bool)",
        "numberOfBytes": "32",
        "value": "t_bool"
      },
      "t_mapping(t_address,t_mapping(t_address,t_bool))": {
        "encoding": "mapping",
        "key": "t_address",
        "label": "mapping(address => mapping(address => bool))",
        "numberOfBytes": "32",
        "value": "t_mapping(t_address,t_bool)"
      },
      "t_mapping(t_address,t_struct(UintSet)2651_storage)": {
        "encoding": "mapping",
        "key": "t_address",
        "label": "mapping(address => struct EnumerableSet.UintSet)",
        "numberOfBytes": "32",
        "value": "t_struct(UintSet)2651_storage"
      },
      "t_mapping(t_bytes32,t_uint256)": {
        "encoding": "mapping",
        "key": "t_bytes32",
        "label": "mapping(bytes32 => uint256)",
        "numberOfBytes": "32",
        "value": "t_uint256"
      },
      "t_mapping(t_bytes4,t_bool)": {
        "encoding": "mapping",
        "key": "t_bytes4",
        "label": "mapping(bytes4 => bool)",
        "numberOfBytes": "32",
        "value": "t_bool"
      },
      "t_mapping(t_uint256,t_address)": {
        "encoding": "mapping",
        "key": "t_uint256",
        "label": "mapping(uint256 => address)",
        "numberOfBytes": "32",
        "value": "t_address"
      },
      "t_mapping(t_uint256,t_string_storage)": {
        "encoding": "mapping",
        "key": "t_uint256",
        "label": "mapping(uint256 => string)",
        "numberOfBytes": "32",
        "value": "t_string_storage"
      },
      "t_string_storage": {
        "encoding": "bytes",
        "label": "string",
        "numberOfBytes": "32"
      },
      "t_struct(Gift)2866_storage": {
        "encoding": "inplace",
        "label": "struct yGift.Gift",
        "members": [
          {
            "astId": 2851,
            "contract": "contracts/yGift/yGift.sol:yGift",
            "label": "token",
            "offset": 0,
            "slot": "0",
            "type": "t_address"
          },
          {
            "astId": 2853,
            "contract": "contracts/yGift/yGift.sol:yGift",
            "label": "amount",
            "offset": 0,
            "slot": "1",
            "type": "t_uint256"
          },
          {
            "astId": 2855,
            "contract": "contracts/yGift/yGift.sol:yGift",
            "label": "tipped",
            "offset": 0,
            "slot": "2",
            "type": "t_uint256"
          },
          {
            "astId": 2857,
            "contract": "contracts/yGift/yGift.sol:yGift",
            "label": "start",
            "offset": 0,
            "slot": "3",
            "type": "t_uint256"
          },
          {
            "astId": 2859,
            "contract": "contracts/yGift/yGift.sol:yGift",
            "label": "duration",
            "offset": 0,
            "slot": "4",
            "type": "t_uint256"
          },
          {
            "astId": 2861,
            "contract": "contracts/yGift/yGift.sol:yGift",
            "label": "name",
            "offset": 0,
            "slot": "5",
            "type": "t_string_storage"
          },
          {
            "astId": 2863,
            "contract": "contracts/yGift/yGift.sol:yGift",
            "label": "message",
            "offset": 0,
            "slot": "6",
            "type": "t_string_storage"
          },
          {
            "astId": 2865,
            "contract": "contracts/yGift/yGift.sol:yGift",
            "label": "url",
            "offset": 0,
            "slot": "7",
            "type": "t_string_storage"
          }
        ],
        "numberOfBytes": "256"
      },
      "t_struct(Map)1912_storage": {
        "encoding": "inplace",
        "label": "struct EnumerableMap.Map",
        "members": [
          {
            "astId": 1907,
            "contract": "contracts/yGift/yGift.sol:yGift",
            "label": "_entries",
            "offset": 0,
            "slot": "0",
            "type": "t_array(t_struct(MapEntry)1904_storage)dyn_storage"
          },
          {
            "astId": 1911,
            "contract": "contracts/yGift/yGift.sol:yGift",
            "label": "_indexes",
            "offset": 0,
            "slot": "1",
            "type": "t_mapping(t_bytes32,t_uint256)"
          }
        ],
        "numberOfBytes": "64"
      },
      "t_struct(MapEntry)1904_storage": {
        "encoding": "inplace",
        "label": "struct EnumerableMap.MapEntry",
        "members": [
          {
            "astId": 1901,
            "contract": "contracts/yGift/yGift.sol:yGift",
            "label": "_key",
            "offset": 0,
            "slot": "0",
            "type": "t_bytes32"
          },
          {
            "astId": 1903,
            "contract": "contracts/yGift/yGift.sol:yGift",
            "label": "_value",
            "offset": 0,
            "slot": "1",
            "type": "t_bytes32"
          }
        ],
        "numberOfBytes": "64"
      },
      "t_struct(Set)2362_storage": {
        "encoding": "inplace",
        "label": "struct EnumerableSet.Set",
        "members": [
          {
            "astId": 2357,
            "contract": "contracts/yGift/yGift.sol:yGift",
            "label": "_values",
            "offset": 0,
            "slot": "0",
            "type": "t_array(t_bytes32)dyn_storage"
          },
          {
            "astId": 2361,
            "contract": "contracts/yGift/yGift.sol:yGift",
            "label": "_indexes",
            "offset": 0,
            "slot": "1",
            "type": "t_mapping(t_bytes32,t_uint256)"
          }
        ],
        "numberOfBytes": "64"
      },
      "t_struct(UintSet)2651_storage": {
        "encoding": "inplace",
        "label": "struct EnumerableSet.UintSet",
        "members": [
          {
            "astId": 2650,
            "contract": "contracts/yGift/yGift.sol:yGift",
            "label": "_inner",
            "offset": 0,
            "slot": "0",
            "type": "t_struct(Set)2362_storage"
          }
        ],
        "numberOfBytes": "64"
      },
      "t_struct(UintToAddressMap)2176_storage": {
        "encoding": "inplace",
        "label": "struct EnumerableMap.UintToAddressMap",
        "members": [
          {
            "astId": 2175,
            "contract": "contracts/yGift/yGift.sol:yGift",
            "label": "_inner",
            "offset": 0,
            "slot": "0",
            "type": "t_struct(Map)1912_storage"
          }
        ],
        "numberOfBytes": "64"
      },
      "t_uint256": {
        "encoding": "inplace",
        "label": "uint256",
        "numberOfBytes": "32"
      }
    }
  }
}